{
  "contractName": "ERC20",
  "abi": [
    {
      "inputs": [
        {
          "internalType": "uint256",
          "name": "amount_",
          "type": "uint256"
        },
        {
          "internalType": "address",
          "name": "beneficiary_",
          "type": "address"
        },
        {
          "internalType": "uint256",
          "name": "releaseTime_",
          "type": "uint256"
        }
      ],
      "stateMutability": "nonpayable",
      "type": "constructor"
    },
    {
      "anonymous": false,
      "inputs": [
        {
          "indexed": true,
          "internalType": "address",
          "name": "owner",
          "type": "address"
        },
        {
          "indexed": true,
          "internalType": "address",
          "name": "spender",
          "type": "address"
        },
        {
          "indexed": false,
          "internalType": "uint256",
          "name": "value",
          "type": "uint256"
        }
      ],
      "name": "Approval",
      "type": "event"
    },
    {
      "anonymous": false,
      "inputs": [
        {
          "indexed": true,
          "internalType": "address",
          "name": "from",
          "type": "address"
        },
        {
          "indexed": true,
          "internalType": "address",
          "name": "to",
          "type": "address"
        },
        {
          "indexed": false,
          "internalType": "uint256",
          "name": "value",
          "type": "uint256"
        }
      ],
      "name": "Transfer",
      "type": "event"
    },
    {
      "inputs": [],
      "name": "decimals",
      "outputs": [
        {
          "internalType": "uint256",
          "name": "",
          "type": "uint256"
        }
      ],
      "stateMutability": "view",
      "type": "function",
      "constant": true
    },
    {
      "inputs": [],
      "name": "name",
      "outputs": [
        {
          "internalType": "string",
          "name": "",
          "type": "string"
        }
      ],
      "stateMutability": "view",
      "type": "function",
      "constant": true
    },
    {
      "inputs": [],
      "name": "owner",
      "outputs": [
        {
          "internalType": "address",
          "name": "",
          "type": "address"
        }
      ],
      "stateMutability": "view",
      "type": "function",
      "constant": true
    },
    {
      "inputs": [],
      "name": "symbol",
      "outputs": [
        {
          "internalType": "string",
          "name": "",
          "type": "string"
        }
      ],
      "stateMutability": "view",
      "type": "function",
      "constant": true
    },
    {
      "inputs": [],
      "name": "totalSupply",
      "outputs": [
        {
          "internalType": "uint256",
          "name": "",
          "type": "uint256"
        }
      ],
      "stateMutability": "view",
      "type": "function",
      "constant": true
    },
    {
      "inputs": [
        {
          "internalType": "address",
          "name": "account",
          "type": "address"
        }
      ],
      "name": "balanceOf",
      "outputs": [
        {
          "internalType": "uint256",
          "name": "",
          "type": "uint256"
        }
      ],
      "stateMutability": "view",
      "type": "function",
      "constant": true
    },
    {
      "inputs": [
        {
          "internalType": "address",
          "name": "recipient",
          "type": "address"
        },
        {
          "internalType": "uint256",
          "name": "amount",
          "type": "uint256"
        }
      ],
      "name": "transfer",
      "outputs": [
        {
          "internalType": "bool",
          "name": "",
          "type": "bool"
        }
      ],
      "stateMutability": "nonpayable",
      "type": "function"
    },
    {
      "inputs": [
        {
          "internalType": "address",
          "name": "tokenowner",
          "type": "address"
        },
        {
          "internalType": "address",
          "name": "spender",
          "type": "address"
        }
      ],
      "name": "allowance",
      "outputs": [
        {
          "internalType": "uint256",
          "name": "",
          "type": "uint256"
        }
      ],
      "stateMutability": "view",
      "type": "function",
      "constant": true
    },
    {
      "inputs": [
        {
          "internalType": "address",
          "name": "spender",
          "type": "address"
        },
        {
          "internalType": "uint256",
          "name": "amount",
          "type": "uint256"
        }
      ],
      "name": "approve",
      "outputs": [
        {
          "internalType": "bool",
          "name": "",
          "type": "bool"
        }
      ],
      "stateMutability": "nonpayable",
      "type": "function"
    },
    {
      "inputs": [
        {
          "internalType": "address",
          "name": "tokenOwner",
          "type": "address"
        },
        {
          "internalType": "address",
          "name": "recipient",
          "type": "address"
        },
        {
          "internalType": "uint256",
          "name": "amount",
          "type": "uint256"
        }
      ],
      "name": "transferFrom",
      "outputs": [
        {
          "internalType": "bool",
          "name": "",
          "type": "bool"
        }
      ],
      "stateMutability": "nonpayable",
      "type": "function"
    },
    {
      "inputs": [],
      "name": "cap",
      "outputs": [
        {
          "internalType": "uint256",
          "name": "",
          "type": "uint256"
        }
      ],
      "stateMutability": "view",
      "type": "function",
      "constant": true
    },
    {
      "inputs": [
        {
          "internalType": "uint256",
          "name": "amount",
          "type": "uint256"
        }
      ],
      "name": "Generate_Token",
      "outputs": [],
      "stateMutability": "nonpayable",
      "type": "function"
    },
    {
      "inputs": [],
      "name": "beneficiary",
      "outputs": [
        {
          "internalType": "address",
          "name": "",
          "type": "address"
        }
      ],
      "stateMutability": "view",
      "type": "function",
      "constant": true
    },
    {
      "inputs": [],
      "name": "Amount",
      "outputs": [
        {
          "internalType": "uint256",
          "name": "",
          "type": "uint256"
        }
      ],
      "stateMutability": "view",
      "type": "function",
      "constant": true
    },
    {
      "inputs": [],
      "name": "releaseTime",
      "outputs": [
        {
          "internalType": "uint256",
          "name": "",
          "type": "uint256"
        }
      ],
      "stateMutability": "view",
      "type": "function",
      "constant": true
    },
    {
      "inputs": [],
      "name": "release",
      "outputs": [],
      "stateMutability": "nonpayable",
      "type": "function"
    }
  ],
  "bytecode": "0x6101006040523480156200001257600080fd5b50604051620020ad380380620020ad8339818101604052810190620000389190620003cb565b424282620000479190620004ea565b116200008a576040517f08c379a000000000000000000000000000000000000000000000000000000000815260040162000081906200049a565b60405180910390fd5b8260e081815250508173ffffffffffffffffffffffffffffffffffffffff1660a08173ffffffffffffffffffffffffffffffffffffffff1660601b815250508042620000d79190620004ea565b60c081815250506040518060600160405280602681526020016200208760269139600490805190602001906200010f929190620002ed565b506040518060400160405280600381526020017f5341480000000000000000000000000000000000000000000000000000000000815250600590805190602001906200015d929190620002ed565b50601260068190555033600360006101000a81548173ffffffffffffffffffffffffffffffffffffffff021916908373ffffffffffffffffffffffffffffffffffffffff160217905550600654600a620001b89190620005a2565b6032620001c69190620006df565b600281905550600254600080600360009054906101000a900473ffffffffffffffffffffffffffffffffffffffff1673ffffffffffffffffffffffffffffffffffffffff1673ffffffffffffffffffffffffffffffffffffffff16815260200190815260200160002081905550600654600a620002449190620005a2565b6037620002529190620006df565b60808181525050600360009054906101000a900473ffffffffffffffffffffffffffffffffffffffff1673ffffffffffffffffffffffffffffffffffffffff163073ffffffffffffffffffffffffffffffffffffffff167fddf252ad1be2c89b69c2b068fc378daa952ba7f163c4a11628f55a4df523b3ef600254604051620002dc9190620004bc565b60405180910390a350505062000853565b828054620002fb906200077e565b90600052602060002090601f0160209004810192826200031f57600085556200036b565b82601f106200033a57805160ff19168380011785556200036b565b828001600101855582156200036b579182015b828111156200036a5782518255916020019190600101906200034d565b5b5090506200037a91906200037e565b5090565b5b80821115620003995760008160009055506001016200037f565b5090565b600081519050620003ae816200081f565b92915050565b600081519050620003c58162000839565b92915050565b600080600060608486031215620003e157600080fd5b6000620003f186828701620003b4565b935050602062000404868287016200039d565b92505060406200041786828701620003b4565b9150509250925092565b600062000430603283620004d9565b91507f546f6b656e54696d656c6f636b3a2072656c656173652074696d65206973206260008301527f65666f72652063757272656e742074696d6500000000000000000000000000006020830152604082019050919050565b620004948162000774565b82525050565b60006020820190508181036000830152620004b58162000421565b9050919050565b6000602082019050620004d3600083018462000489565b92915050565b600082825260208201905092915050565b6000620004f78262000774565b9150620005048362000774565b9250827fffffffffffffffffffffffffffffffffffffffffffffffffffffffffffffffff038211156200053c576200053b620007b4565b5b828201905092915050565b6000808291508390505b60018511156200059957808604811115620005715762000570620007b4565b5b6001851615620005815780820291505b8081029050620005918562000812565b945062000551565b94509492505050565b6000620005af8262000774565b9150620005bc8362000774565b9250620005eb7fffffffffffffffffffffffffffffffffffffffffffffffffffffffffffffffff8484620005f3565b905092915050565b600082620006055760019050620006d8565b81620006155760009050620006d8565b81600181146200062e576002811462000639576200066f565b6001915050620006d8565b60ff8411156200064e576200064d620007b4565b5b8360020a915084821115620006685762000667620007b4565b5b50620006d8565b5060208310610133831016604e8410600b8410161715620006a95782820a905083811115620006a357620006a2620007b4565b5b620006d8565b620006b8848484600162000547565b92509050818404811115620006d257620006d1620007b4565b5b81810290505b9392505050565b6000620006ec8262000774565b9150620006f98362000774565b9250817fffffffffffffffffffffffffffffffffffffffffffffffffffffffffffffffff0483118215151615620007355762000734620007b4565b5b828202905092915050565b60006200074d8262000754565b9050919050565b600073ffffffffffffffffffffffffffffffffffffffff82169050919050565b6000819050919050565b600060028204905060018216806200079757607f821691505b60208210811415620007ae57620007ad620007e3565b5b50919050565b7f4e487b7100000000000000000000000000000000000000000000000000000000600052601160045260246000fd5b7f4e487b7100000000000000000000000000000000000000000000000000000000600052602260045260246000fd5b60008160011c9050919050565b6200082a8162000740565b81146200083657600080fd5b50565b620008448162000774565b81146200085057600080fd5b50565b60805160a05160601c60c05160e0516117e96200089e6000396000818161093901528181610af10152610b5d01526000610f2a01526000610911015260006108e901526117e96000f3fe608060405234801561001057600080fd5b50600436106101005760003560e01c80635c8b7b6b1161009757806395d89b411161006657806395d89b411461028d578063a9059cbb146102ab578063b91d4001146102db578063dd62ed3e146102f957610100565b80635c8b7b6b1461021957806370a082311461023557806386d1a69f146102655780638da5cb5b1461026f57610100565b8063313ce567116100d3578063313ce567146101a1578063355274ea146101bf57806338af3eed146101dd5780635a66bc6a146101fb57610100565b806306fdde0314610105578063095ea7b31461012357806318160ddd1461015357806323b872dd14610171575b600080fd5b61010d610329565b60405161011a9190611466565b60405180910390f35b61013d600480360381019061013891906110b3565b6103b7565b60405161014a919061144b565b60405180910390f35b61015b61058e565b60405161016891906115a8565b60405180910390f35b61018b60048036038101906101869190611064565b610598565b604051610198919061144b565b60405180910390f35b6101a96108df565b6040516101b691906115a8565b60405180910390f35b6101c76108e5565b6040516101d491906115a8565b60405180910390f35b6101e561090d565b6040516101f29190611430565b60405180910390f35b610203610935565b60405161021091906115a8565b60405180910390f35b610233600480360381019061022e91906110ef565b61095d565b005b61024f600480360381019061024a9190610fff565b610a5b565b60405161025c91906115a8565b60405180910390f35b61026d610aa3565b005b610277610b84565b6040516102849190611430565b60405180910390f35b610295610baa565b6040516102a29190611466565b60405180910390f35b6102c560048036038101906102c091906110b3565b610c38565b6040516102d2919061144b565b60405180910390f35b6102e3610f26565b6040516102f091906115a8565b60405180910390f35b610313600480360381019061030e9190611028565b610f4e565b60405161032091906115a8565b60405180910390f35b60048054610336906116e4565b80601f0160208091040260200160405190810160405280929190818152602001828054610362906116e4565b80156103af5780601f10610384576101008083540402835291602001916103af565b820191906000526020600020905b81548152906001019060200180831161039257829003601f168201915b505050505081565b600080339050600073ffffffffffffffffffffffffffffffffffffffff168173ffffffffffffffffffffffffffffffffffffffff16141561042d576040517f08c379a0000000000000000000000000000000000000000000000000000000008152600401610424906114c8565b60405180910390fd5b600073ffffffffffffffffffffffffffffffffffffffff168473ffffffffffffffffffffffffffffffffffffffff16141561049d576040517f08c379a000000000000000000000000000000000000000000000000000000000815260040161049490611508565b60405180910390fd5b82600160008373ffffffffffffffffffffffffffffffffffffffff1673ffffffffffffffffffffffffffffffffffffffff16815260200190815260200160002060008673ffffffffffffffffffffffffffffffffffffffff1673ffffffffffffffffffffffffffffffffffffffff168152602001908152602001600020819055508373ffffffffffffffffffffffffffffffffffffffff168173ffffffffffffffffffffffffffffffffffffffff167f8c5be1e5ebec7d5bd14f71427d1e84f3dd0314c0f7b2291e5b200ac8c7c3b9258560405161057b91906115a8565b60405180910390a3600191505092915050565b6000600254905090565b6000803390506000600160008773ffffffffffffffffffffffffffffffffffffffff1673ffffffffffffffffffffffffffffffffffffffff16815260200190815260200160002060008373ffffffffffffffffffffffffffffffffffffffff1673ffffffffffffffffffffffffffffffffffffffff168152602001908152602001600020549050838111610661576040517f08c379a000000000000000000000000000000000000000000000000000000000815260040161065890611528565b60405180910390fd5b838161066d9190611635565b9050836000808873ffffffffffffffffffffffffffffffffffffffff1673ffffffffffffffffffffffffffffffffffffffff168152602001908152602001600020546106b99190611635565b6000808873ffffffffffffffffffffffffffffffffffffffff1673ffffffffffffffffffffffffffffffffffffffff16815260200190815260200160002081905550836000808773ffffffffffffffffffffffffffffffffffffffff1673ffffffffffffffffffffffffffffffffffffffff1681526020019081526020016000205461074591906115df565b6000808773ffffffffffffffffffffffffffffffffffffffff1673ffffffffffffffffffffffffffffffffffffffff168152602001908152602001600020819055508473ffffffffffffffffffffffffffffffffffffffff168673ffffffffffffffffffffffffffffffffffffffff167fddf252ad1be2c89b69c2b068fc378daa952ba7f163c4a11628f55a4df523b3ef866040516107e491906115a8565b60405180910390a380600160008873ffffffffffffffffffffffffffffffffffffffff1673ffffffffffffffffffffffffffffffffffffffff16815260200190815260200160002060008473ffffffffffffffffffffffffffffffffffffffff1673ffffffffffffffffffffffffffffffffffffffff168152602001908152602001600020819055508473ffffffffffffffffffffffffffffffffffffffff168673ffffffffffffffffffffffffffffffffffffffff167f8c5be1e5ebec7d5bd14f71427d1e84f3dd0314c0f7b2291e5b200ac8c7c3b925866040516108ca91906115a8565b60405180910390a36001925050509392505050565b60065481565b60007f0000000000000000000000000000000000000000000000000000000000000000905090565b60007f0000000000000000000000000000000000000000000000000000000000000000905090565b60007f0000000000000000000000000000000000000000000000000000000000000000905090565b600360009054906101000a900473ffffffffffffffffffffffffffffffffffffffff1673ffffffffffffffffffffffffffffffffffffffff163373ffffffffffffffffffffffffffffffffffffffff16146109ed576040517f08c379a00000000000000000000000000000000000000000000000000000000081526004016109e490611568565b60405180910390fd5b6109f56108e5565b81600254610a0391906115df565b1115610a44576040517f08c379a0000000000000000000000000000000000000000000000000000000008152600401610a3b90611548565b60405180910390fd5b80600254610a5291906115df565b60028190555050565b60008060008373ffffffffffffffffffffffffffffffffffffffff1673ffffffffffffffffffffffffffffffffffffffff168152602001908152602001600020549050919050565b610aab610f26565b421015610aed576040517f08c379a0000000000000000000000000000000000000000000000000000000008152600401610ae490611488565b60405180910390fd5b60007f000000000000000000000000000000000000000000000000000000000000000011610b50576040517f08c379a0000000000000000000000000000000000000000000000000000000008152600401610b4790611588565b60405180910390fd5b610b81610b5b61090d565b7f0000000000000000000000000000000000000000000000000000000000000000610c38565b50565b600360009054906101000a900473ffffffffffffffffffffffffffffffffffffffff1681565b60058054610bb7906116e4565b80601f0160208091040260200160405190810160405280929190818152602001828054610be3906116e4565b8015610c305780601f10610c0557610100808354040283529160200191610c30565b820191906000526020600020905b815481529060010190602001808311610c1357829003601f168201915b505050505081565b600080339050600073ffffffffffffffffffffffffffffffffffffffff168173ffffffffffffffffffffffffffffffffffffffff161415610cae576040517f08c379a0000000000000000000000000000000000000000000000000000000008152600401610ca5906114e8565b60405180910390fd5b600073ffffffffffffffffffffffffffffffffffffffff168473ffffffffffffffffffffffffffffffffffffffff161415610d1e576040517f08c379a0000000000000000000000000000000000000000000000000000000008152600401610d15906114e8565b60405180910390fd5b826000808373ffffffffffffffffffffffffffffffffffffffff1673ffffffffffffffffffffffffffffffffffffffff1681526020019081526020016000205411610d9e576040517f08c379a0000000000000000000000000000000000000000000000000000000008152600401610d95906114a8565b60405180910390fd5b826000808373ffffffffffffffffffffffffffffffffffffffff1673ffffffffffffffffffffffffffffffffffffffff16815260200190815260200160002054610de89190611635565b6000808373ffffffffffffffffffffffffffffffffffffffff1673ffffffffffffffffffffffffffffffffffffffff16815260200190815260200160002081905550826000808673ffffffffffffffffffffffffffffffffffffffff1673ffffffffffffffffffffffffffffffffffffffff16815260200190815260200160002054610e7491906115df565b6000808673ffffffffffffffffffffffffffffffffffffffff1673ffffffffffffffffffffffffffffffffffffffff168152602001908152602001600020819055508373ffffffffffffffffffffffffffffffffffffffff168173ffffffffffffffffffffffffffffffffffffffff167fddf252ad1be2c89b69c2b068fc378daa952ba7f163c4a11628f55a4df523b3ef85604051610f1391906115a8565b60405180910390a3600191505092915050565b60007f0000000000000000000000000000000000000000000000000000000000000000905090565b6000600160008473ffffffffffffffffffffffffffffffffffffffff1673ffffffffffffffffffffffffffffffffffffffff16815260200190815260200160002060008373ffffffffffffffffffffffffffffffffffffffff1673ffffffffffffffffffffffffffffffffffffffff16815260200190815260200160002054905092915050565b600081359050610fe481611785565b92915050565b600081359050610ff98161179c565b92915050565b60006020828403121561101157600080fd5b600061101f84828501610fd5565b91505092915050565b6000806040838503121561103b57600080fd5b600061104985828601610fd5565b925050602061105a85828601610fd5565b9150509250929050565b60008060006060848603121561107957600080fd5b600061108786828701610fd5565b935050602061109886828701610fd5565b92505060406110a986828701610fea565b9150509250925092565b600080604083850312156110c657600080fd5b60006110d485828601610fd5565b92505060206110e585828601610fea565b9150509250929050565b60006020828403121561110157600080fd5b600061110f84828501610fea565b91505092915050565b61112181611669565b82525050565b6111308161167b565b82525050565b6000611141826115c3565b61114b81856115ce565b935061115b8185602086016116b1565b61116481611774565b840191505092915050565b600061117c6032836115ce565b91507f546f6b656e54696d656c6f636b3a2063757272656e742074696d65206973206260008301527f65666f72652072656c656173652074696d6500000000000000000000000000006020830152604082019050919050565b60006111e26020836115ce565b91507f7472616e7366657220616d6f756e7420657865636465732062616c616e6365736000830152602082019050919050565b6000611222601d836115ce565b91507f617070726f76652066726f6d20746865207a65726f20616464726573730000006000830152602082019050919050565b60006112626017836115ce565b91507f616464726573732073686f756c64206e6f7420626520300000000000000000006000830152602082019050919050565b60006112a2601d836115ce565b91507f417070726f76652066726f6d20746865207a65726f20616464726573730000006000830152602082019050919050565b60006112e26021836115ce565b91507f5472616e7366657220616d6f756e74206578656364657320616c6c6f77616e6360008301527f65000000000000000000000000000000000000000000000000000000000000006020830152604082019050919050565b60006113486019836115ce565b91507f45524332304361707065643a20636170206578636565646564000000000000006000830152602082019050919050565b6000611388601d836115ce565b91507f4f6e6c79206f776e65722063616e2067656e657261746520746f6b656e0000006000830152602082019050919050565b60006113c86023836115ce565b91507f546f6b656e54696d656c6f636b3a206e6f20746f6b656e7320746f2072656c6560008301527f61736500000000000000000000000000000000000000000000000000000000006020830152604082019050919050565b61142a816116a7565b82525050565b60006020820190506114456000830184611118565b92915050565b60006020820190506114606000830184611127565b92915050565b600060208201905081810360008301526114808184611136565b905092915050565b600060208201905081810360008301526114a18161116f565b9050919050565b600060208201905081810360008301526114c1816111d5565b9050919050565b600060208201905081810360008301526114e181611215565b9050919050565b6000602082019050818103600083015261150181611255565b9050919050565b6000602082019050818103600083015261152181611295565b9050919050565b60006020820190508181036000830152611541816112d5565b9050919050565b600060208201905081810360008301526115618161133b565b9050919050565b600060208201905081810360008301526115818161137b565b9050919050565b600060208201905081810360008301526115a1816113bb565b9050919050565b60006020820190506115bd6000830184611421565b92915050565b600081519050919050565b600082825260208201905092915050565b60006115ea826116a7565b91506115f5836116a7565b9250827fffffffffffffffffffffffffffffffffffffffffffffffffffffffffffffffff0382111561162a57611629611716565b5b828201905092915050565b6000611640826116a7565b915061164b836116a7565b92508282101561165e5761165d611716565b5b828203905092915050565b600061167482611687565b9050919050565b60008115159050919050565b600073ffffffffffffffffffffffffffffffffffffffff82169050919050565b6000819050919050565b60005b838110156116cf5780820151818401526020810190506116b4565b838111156116de576000848401525b50505050565b600060028204905060018216806116fc57607f821691505b602082108114156117105761170f611745565b5b50919050565b7f4e487b7100000000000000000000000000000000000000000000000000000000600052601160045260246000fd5b7f4e487b7100000000000000000000000000000000000000000000000000000000600052602260045260246000fd5b6000601f19601f8301169050919050565b61178e81611669565b811461179957600080fd5b50565b6117a5816116a7565b81146117b057600080fd5b5056fea2646970667358221220e9f4678ec5392cc83fbebc8d44af2e4fcfd2e48aaef5628d842fd1b10769fc2e64736f6c63430008000033546f6b656e206d61646520627920486166697a2053617979656420416c692048616d64616e69",
  "immutableReferences": {
    "92": [
      {
        "length": 32,
        "start": 2281
      }
    ],
    "94": [
      {
        "length": 32,
        "start": 2321
      }
    ],
    "96": [
      {
        "length": 32,
        "start": 3882
      }
    ],
    "98": [
      {
        "length": 32,
        "start": 2361
      },
      {
        "length": 32,
        "start": 2801
      },
      {
        "length": 32,
        "start": 2909
      }
    ]
  },
  "source": "  // SPDX-License-Identifier: MIT\r\n pragma solidity ^0.8.0;\r\ninterface IERC20{\r\n    function totalSupply() external view returns(uint256);\r\n    function balanceOf(address account) external view returns(uint256);\r\n    function transfer(address recipient,uint256 amount) external returns(bool);\r\n    function allowance(address owner,address spender) external view returns(uint256);\r\n    // This is to check that the person who we give Approval to transfer token fron \r\n    // our account.How many tokens Approval he still left;\r\n    function approve(address spender,uint256 amount) external returns(bool);\r\n    // This is to approve someone how to transfer certain amount of token from your \r\n    // account to someone else;\r\n    function transferFrom(address sender,address recipient,uint256 amount) external returns(bool);\r\n    // spender will use the function transferFrom to transfer amount;\r\n    event Transfer(address indexed from,address indexed to,uint256 value);\r\n    event Approval(address indexed owner,address indexed spender,uint256 value);\r\n}\r\ncontract ERC20 is IERC20{\r\n    mapping (address=>uint256) private _balances;\r\n    mapping (address=>mapping(address=>uint256)) private _allowances;\r\n\r\n    uint256 private _totalSupply;\r\n    address public owner;\r\n    \r\n    string public name;\r\n    string public symbol;\r\n    uint256 public decimals;\r\n     uint256 private immutable _cap;\r\n     // beneficiary of tokens after they are released\r\n    address private immutable _beneficiary;\r\n// timestamp when token release is enabled\r\n    uint256 private immutable _releaseTime;\r\n    uint256 private immutable _amount;\r\n     \r\n    constructor(\r\n        uint256 amount_,\r\n        address beneficiary_,\r\n        uint256 releaseTime_\r\n        \r\n    ) {\r\n        require(releaseTime_+block.timestamp > block.timestamp, \"TokenTimelock: release time is before current time\");\r\n        _amount = amount_;\r\n        _beneficiary = beneficiary_;\r\n        _releaseTime =(block.timestamp + releaseTime_);\r\n        name=\"Token made by Hafiz Sayyed Ali Hamdani\";\r\n        symbol=\"SAH\";\r\n        decimals=18;\r\n        owner=msg.sender;\r\n        _totalSupply=50*10**decimals;\r\n        _balances[owner]= _totalSupply;\r\n        _cap = 55*10**decimals;\r\n        \r\n        emit Transfer(address(this),owner,_totalSupply);\r\n    }\r\n    \r\n    function totalSupply() public view override returns(uint256){\r\n        return _totalSupply;\r\n    }\r\n     function balanceOf(address account) public override view returns(uint256){\r\n         return _balances[account];\r\n     }\r\n     function transfer(address recipient,uint256 amount) public virtual override returns(bool){\r\n         address sender=msg.sender;\r\n         require(sender!=address(0),\"address should not be 0\");\r\n         require(recipient!=address(0),\"address should not be 0\");\r\n         require(_balances[sender]>amount,\"transfer amount execdes balances\");\r\n         \r\n         _balances[sender]=_balances[sender]-amount;\r\n         \r\n         _balances[recipient]=_balances[recipient]+amount;\r\n         \r\n         emit Transfer(sender,recipient,amount);\r\n         return true;\r\n     }\r\n      function allowance(address tokenowner,address spender) public view virtual override returns(uint256){\r\n          return _allowances[tokenowner][spender];\r\n      }\r\n      \r\n       function approve(address spender,uint256 amount) public virtual override returns(bool){\r\n           address tokenOwner=msg.sender;\r\n           require(tokenOwner!=address(0),\"approve from the zero address\");\r\n           require(spender!=address(0),\"Approve from the zero address\");\r\n           \r\n           _allowances[tokenOwner][spender]=amount;\r\n           emit Approval(tokenOwner,spender,amount);\r\n           return true;\r\n           \r\n       }\r\n       \r\n       function transferFrom(address tokenOwner,address recipient,uint256 amount) public virtual override returns(bool){\r\n       address spender=msg.sender;\r\n       uint256 _allowance=_allowances[tokenOwner][spender];\r\n       require(_allowance>amount,\"Transfer amount execdes allowance\");\r\n           _allowance=_allowance-amount;\r\n           _balances[tokenOwner]=_balances[tokenOwner]-amount;\r\n           _balances[recipient]=_balances[recipient]+amount;\r\n             emit Transfer(tokenOwner,recipient,amount);\r\n             _allowances[tokenOwner][spender]=_allowance;\r\n             emit Approval(tokenOwner,recipient,amount);\r\n         return true;\r\n           \r\n       }\r\n       function cap() public view virtual returns (uint256) {\r\n        return _cap;\r\n    }\r\n    function Generate_Token(uint256 amount) public{\r\n        require(msg.sender==owner,\"Only owner can generate token\");\r\n        require(_totalSupply + amount <= cap(), \"ERC20Capped: cap exceeded\");\r\n        _totalSupply=_totalSupply+amount;\r\n    }\r\n    function beneficiary() public view virtual returns (address) {\r\n        return _beneficiary;\r\n    }\r\n    function Amount() public view virtual returns (uint256) {\r\n        return _amount;\r\n    }\r\n\r\n    /**\r\n     * @return the time when the tokens are released.\r\n     */\r\n    function releaseTime() public view virtual returns (uint256) {\r\n        return _releaseTime;\r\n    }/**\r\n     * @notice Transfers tokens held by timelock to beneficiary.\r\n     */\r\n    function release() public virtual {\r\n        require(block.timestamp >= releaseTime(), \"TokenTimelock: current time is before release time\");\r\n        require(_amount > 0, \"TokenTimelock: no tokens to release\");\r\n        transfer(beneficiary(), _amount);\r\n    }\r\n}\r\n//  Deploying 'ERC20'\r\n//    -----------------\r\n//    > transaction hash:    0x892fb48b5a77b39496584f1da9ba6c57c66aa88f18e8fa9609617c4aad0dd0b3\r\n//    > Blocks: 3            Seconds: 14\r\n//    > contract address:    0x52328D12b8A10a5FB6d138ec7364c9778288118b\r\n//    > block number:        10899093\r\n//    > block timestamp:     1629796738\r\n//    > account:             0x39602393131d0732C6ABF4dcd90390dE0DCe3c03\r\n//    > balance:             4.487244121127260959\r\n//    > gas used:            1583284 (0x1828b4)\r\n//    > gas price:           1.500000008 gwei\r\n//    > value sent:          0 ETH\r\n//    > total cost:          0.002374926012666272 ETH\r\n",
  "sourcePath": "D:\\NOTES\\ERC20_Capp_Timelock\\contracts\\ERC20.sol",
  "compiler": {
    "name": "solc",
    "version": "0.8.0+commit.c7dfd78e.Emscripten.clang"
  },
  "schemaVersion": "3.4.3",
  "updatedAt": "2021-08-24T12:07:21.278Z",
  "networkType": "ethereum",
  "devdoc": {
    "kind": "dev",
    "methods": {
      "releaseTime()": {
        "returns": {
          "_0": "the time when the tokens are released."
        }
      }
    },
    "version": 1
  },
  "userdoc": {
    "kind": "user",
    "methods": {
      "release()": {
        "notice": "Transfers tokens held by timelock to beneficiary."
      }
    },
    "version": 1
  }
}