{
  "contractName": "ERC20",
  "abi": [
    {
      "inputs": [],
      "stateMutability": "nonpayable",
      "type": "constructor"
    },
    {
      "anonymous": false,
      "inputs": [
        {
          "indexed": true,
          "internalType": "address",
          "name": "owner",
          "type": "address"
        },
        {
          "indexed": true,
          "internalType": "address",
          "name": "spender",
          "type": "address"
        },
        {
          "indexed": false,
          "internalType": "uint256",
          "name": "value",
          "type": "uint256"
        }
      ],
      "name": "Approval",
      "type": "event"
    },
    {
      "anonymous": false,
      "inputs": [
        {
          "indexed": true,
          "internalType": "address",
          "name": "from",
          "type": "address"
        },
        {
          "indexed": true,
          "internalType": "address",
          "name": "to",
          "type": "address"
        },
        {
          "indexed": false,
          "internalType": "uint256",
          "name": "value",
          "type": "uint256"
        }
      ],
      "name": "Transfer",
      "type": "event"
    },
    {
      "inputs": [],
      "name": "decimals",
      "outputs": [
        {
          "internalType": "uint256",
          "name": "",
          "type": "uint256"
        }
      ],
      "stateMutability": "view",
      "type": "function",
      "constant": true
    },
    {
      "inputs": [],
      "name": "name",
      "outputs": [
        {
          "internalType": "string",
          "name": "",
          "type": "string"
        }
      ],
      "stateMutability": "view",
      "type": "function",
      "constant": true
    },
    {
      "inputs": [],
      "name": "owner",
      "outputs": [
        {
          "internalType": "address",
          "name": "",
          "type": "address"
        }
      ],
      "stateMutability": "view",
      "type": "function",
      "constant": true
    },
    {
      "inputs": [],
      "name": "symbol",
      "outputs": [
        {
          "internalType": "string",
          "name": "",
          "type": "string"
        }
      ],
      "stateMutability": "view",
      "type": "function",
      "constant": true
    },
    {
      "inputs": [],
      "name": "totalSupply",
      "outputs": [
        {
          "internalType": "uint256",
          "name": "",
          "type": "uint256"
        }
      ],
      "stateMutability": "view",
      "type": "function",
      "constant": true
    },
    {
      "inputs": [
        {
          "internalType": "address",
          "name": "account",
          "type": "address"
        }
      ],
      "name": "balanceOf",
      "outputs": [
        {
          "internalType": "uint256",
          "name": "",
          "type": "uint256"
        }
      ],
      "stateMutability": "view",
      "type": "function",
      "constant": true
    },
    {
      "inputs": [
        {
          "internalType": "address",
          "name": "recipient",
          "type": "address"
        },
        {
          "internalType": "uint256",
          "name": "amount",
          "type": "uint256"
        }
      ],
      "name": "transfer",
      "outputs": [
        {
          "internalType": "bool",
          "name": "",
          "type": "bool"
        }
      ],
      "stateMutability": "nonpayable",
      "type": "function"
    },
    {
      "inputs": [
        {
          "internalType": "address",
          "name": "tokenowner",
          "type": "address"
        },
        {
          "internalType": "address",
          "name": "spender",
          "type": "address"
        }
      ],
      "name": "allowance",
      "outputs": [
        {
          "internalType": "uint256",
          "name": "",
          "type": "uint256"
        }
      ],
      "stateMutability": "view",
      "type": "function",
      "constant": true
    },
    {
      "inputs": [
        {
          "internalType": "address",
          "name": "spender",
          "type": "address"
        },
        {
          "internalType": "uint256",
          "name": "amount",
          "type": "uint256"
        }
      ],
      "name": "approve",
      "outputs": [
        {
          "internalType": "bool",
          "name": "",
          "type": "bool"
        }
      ],
      "stateMutability": "nonpayable",
      "type": "function"
    },
    {
      "inputs": [
        {
          "internalType": "address",
          "name": "tokenOwner",
          "type": "address"
        },
        {
          "internalType": "address",
          "name": "recipient",
          "type": "address"
        },
        {
          "internalType": "uint256",
          "name": "amount",
          "type": "uint256"
        }
      ],
      "name": "transferFrom",
      "outputs": [
        {
          "internalType": "bool",
          "name": "",
          "type": "bool"
        }
      ],
      "stateMutability": "nonpayable",
      "type": "function"
    },
    {
      "inputs": [],
      "name": "cap",
      "outputs": [
        {
          "internalType": "uint256",
          "name": "",
          "type": "uint256"
        }
      ],
      "stateMutability": "view",
      "type": "function",
      "constant": true
    },
    {
      "inputs": [
        {
          "internalType": "uint256",
          "name": "amount",
          "type": "uint256"
        }
      ],
      "name": "_mint",
      "outputs": [],
      "stateMutability": "nonpayable",
      "type": "function"
    }
  ],
  "bytecode": "0x60a06040523480156200001157600080fd5b5060405180606001604052806026815260200162001a906026913960049080519060200190620000439291906200021e565b506040518060400160405280600381526020017f534148000000000000000000000000000000000000000000000000000000000081525060059080519060200190620000919291906200021e565b50601260068190555033600360006101000a81548173ffffffffffffffffffffffffffffffffffffffff021916908373ffffffffffffffffffffffffffffffffffffffff160217905550600654600a620000ec919062000357565b6032620000fa919062000494565b600281905550600254600080600360009054906101000a900473ffffffffffffffffffffffffffffffffffffffff1673ffffffffffffffffffffffffffffffffffffffff1673ffffffffffffffffffffffffffffffffffffffff16815260200190815260200160002081905550600654600a62000178919062000357565b603762000186919062000494565b60808181525050600360009054906101000a900473ffffffffffffffffffffffffffffffffffffffff1673ffffffffffffffffffffffffffffffffffffffff163073ffffffffffffffffffffffffffffffffffffffff167fddf252ad1be2c89b69c2b068fc378daa952ba7f163c4a11628f55a4df523b3ef600254604051620002109190620002df565b60405180910390a3620005a0565b8280546200022c90620004ff565b90600052602060002090601f0160209004810192826200025057600085556200029c565b82601f106200026b57805160ff19168380011785556200029c565b828001600101855582156200029c579182015b828111156200029b5782518255916020019190600101906200027e565b5b509050620002ab9190620002af565b5090565b5b80821115620002ca576000816000905550600101620002b0565b5090565b620002d981620004f5565b82525050565b6000602082019050620002f66000830184620002ce565b92915050565b6000808291508390505b60018511156200034e5780860481111562000326576200032562000535565b5b6001851615620003365780820291505b8081029050620003468562000593565b945062000306565b94509492505050565b60006200036482620004f5565b91506200037183620004f5565b9250620003a07fffffffffffffffffffffffffffffffffffffffffffffffffffffffffffffffff8484620003a8565b905092915050565b600082620003ba57600190506200048d565b81620003ca57600090506200048d565b8160018114620003e35760028114620003ee5762000424565b60019150506200048d565b60ff84111562000403576200040262000535565b5b8360020a9150848211156200041d576200041c62000535565b5b506200048d565b5060208310610133831016604e8410600b84101617156200045e5782820a90508381111562000458576200045762000535565b5b6200048d565b6200046d8484846001620002fc565b9250905081840481111562000487576200048662000535565b5b81810290505b9392505050565b6000620004a182620004f5565b9150620004ae83620004f5565b9250817fffffffffffffffffffffffffffffffffffffffffffffffffffffffffffffffff0483118215151615620004ea57620004e962000535565b5b828202905092915050565b6000819050919050565b600060028204905060018216806200051857607f821691505b602082108114156200052f576200052e62000564565b5b50919050565b7f4e487b7100000000000000000000000000000000000000000000000000000000600052601160045260246000fd5b7f4e487b7100000000000000000000000000000000000000000000000000000000600052602260045260246000fd5b60008160011c9050919050565b6080516114d4620005bc600039600061093701526114d46000f3fe608060405234801561001057600080fd5b50600436106100b45760003560e01c8063355274ea11610071578063355274ea1461018f57806370a08231146101ad5780638da5cb5b146101dd57806395d89b41146101fb578063a9059cbb14610219578063dd62ed3e14610249576100b4565b806306fdde03146100b9578063095ea7b3146100d757806318160ddd1461010757806323b872dd146101255780632c52619614610155578063313ce56714610171575b600080fd5b6100c1610279565b6040516100ce9190611191565b60405180910390f35b6100f160048036038101906100ec9190610eaa565b610307565b6040516100fe9190611176565b60405180910390f35b61010f6104de565b60405161011c9190611293565b60405180910390f35b61013f600480360381019061013a9190610e5b565b6104e8565b60405161014c9190611176565b60405180910390f35b61016f600480360381019061016a9190610ee6565b61082f565b005b61017961092d565b6040516101869190611293565b60405180910390f35b610197610933565b6040516101a49190611293565b60405180910390f35b6101c760048036038101906101c29190610df6565b61095b565b6040516101d49190611293565b60405180910390f35b6101e56109a3565b6040516101f2919061115b565b60405180910390f35b6102036109c9565b6040516102109190611191565b60405180910390f35b610233600480360381019061022e9190610eaa565b610a57565b6040516102409190611176565b60405180910390f35b610263600480360381019061025e9190610e1f565b610d45565b6040516102709190611293565b60405180910390f35b60048054610286906113cf565b80601f01602080910402602001604051908101604052809291908181526020018280546102b2906113cf565b80156102ff5780601f106102d4576101008083540402835291602001916102ff565b820191906000526020600020905b8154815290600101906020018083116102e257829003601f168201915b505050505081565b600080339050600073ffffffffffffffffffffffffffffffffffffffff168173ffffffffffffffffffffffffffffffffffffffff16141561037d576040517f08c379a0000000000000000000000000000000000000000000000000000000008152600401610374906111d3565b60405180910390fd5b600073ffffffffffffffffffffffffffffffffffffffff168473ffffffffffffffffffffffffffffffffffffffff1614156103ed576040517f08c379a00000000000000000000000000000000000000000000000000000000081526004016103e490611213565b60405180910390fd5b82600160008373ffffffffffffffffffffffffffffffffffffffff1673ffffffffffffffffffffffffffffffffffffffff16815260200190815260200160002060008673ffffffffffffffffffffffffffffffffffffffff1673ffffffffffffffffffffffffffffffffffffffff168152602001908152602001600020819055508373ffffffffffffffffffffffffffffffffffffffff168173ffffffffffffffffffffffffffffffffffffffff167f8c5be1e5ebec7d5bd14f71427d1e84f3dd0314c0f7b2291e5b200ac8c7c3b925856040516104cb9190611293565b60405180910390a3600191505092915050565b6000600254905090565b6000803390506000600160008773ffffffffffffffffffffffffffffffffffffffff1673ffffffffffffffffffffffffffffffffffffffff16815260200190815260200160002060008373ffffffffffffffffffffffffffffffffffffffff1673ffffffffffffffffffffffffffffffffffffffff1681526020019081526020016000205490508381116105b1576040517f08c379a00000000000000000000000000000000000000000000000000000000081526004016105a890611233565b60405180910390fd5b83816105bd9190611320565b9050836000808873ffffffffffffffffffffffffffffffffffffffff1673ffffffffffffffffffffffffffffffffffffffff168152602001908152602001600020546106099190611320565b6000808873ffffffffffffffffffffffffffffffffffffffff1673ffffffffffffffffffffffffffffffffffffffff16815260200190815260200160002081905550836000808773ffffffffffffffffffffffffffffffffffffffff1673ffffffffffffffffffffffffffffffffffffffff1681526020019081526020016000205461069591906112ca565b6000808773ffffffffffffffffffffffffffffffffffffffff1673ffffffffffffffffffffffffffffffffffffffff168152602001908152602001600020819055508473ffffffffffffffffffffffffffffffffffffffff168673ffffffffffffffffffffffffffffffffffffffff167fddf252ad1be2c89b69c2b068fc378daa952ba7f163c4a11628f55a4df523b3ef866040516107349190611293565b60405180910390a380600160008873ffffffffffffffffffffffffffffffffffffffff1673ffffffffffffffffffffffffffffffffffffffff16815260200190815260200160002060008473ffffffffffffffffffffffffffffffffffffffff1673ffffffffffffffffffffffffffffffffffffffff168152602001908152602001600020819055508473ffffffffffffffffffffffffffffffffffffffff168673ffffffffffffffffffffffffffffffffffffffff167f8c5be1e5ebec7d5bd14f71427d1e84f3dd0314c0f7b2291e5b200ac8c7c3b9258660405161081a9190611293565b60405180910390a36001925050509392505050565b600360009054906101000a900473ffffffffffffffffffffffffffffffffffffffff1673ffffffffffffffffffffffffffffffffffffffff163373ffffffffffffffffffffffffffffffffffffffff16146108bf576040517f08c379a00000000000000000000000000000000000000000000000000000000081526004016108b690611273565b60405180910390fd5b6108c7610933565b816002546108d591906112ca565b1115610916576040517f08c379a000000000000000000000000000000000000000000000000000000000815260040161090d90611253565b60405180910390fd5b8060025461092491906112ca565b60028190555050565b60065481565b60007f0000000000000000000000000000000000000000000000000000000000000000905090565b60008060008373ffffffffffffffffffffffffffffffffffffffff1673ffffffffffffffffffffffffffffffffffffffff168152602001908152602001600020549050919050565b600360009054906101000a900473ffffffffffffffffffffffffffffffffffffffff1681565b600580546109d6906113cf565b80601f0160208091040260200160405190810160405280929190818152602001828054610a02906113cf565b8015610a4f5780601f10610a2457610100808354040283529160200191610a4f565b820191906000526020600020905b815481529060010190602001808311610a3257829003601f168201915b505050505081565b600080339050600073ffffffffffffffffffffffffffffffffffffffff168173ffffffffffffffffffffffffffffffffffffffff161415610acd576040517f08c379a0000000000000000000000000000000000000000000000000000000008152600401610ac4906111f3565b60405180910390fd5b600073ffffffffffffffffffffffffffffffffffffffff168473ffffffffffffffffffffffffffffffffffffffff161415610b3d576040517f08c379a0000000000000000000000000000000000000000000000000000000008152600401610b34906111f3565b60405180910390fd5b826000808373ffffffffffffffffffffffffffffffffffffffff1673ffffffffffffffffffffffffffffffffffffffff1681526020019081526020016000205411610bbd576040517f08c379a0000000000000000000000000000000000000000000000000000000008152600401610bb4906111b3565b60405180910390fd5b826000808373ffffffffffffffffffffffffffffffffffffffff1673ffffffffffffffffffffffffffffffffffffffff16815260200190815260200160002054610c079190611320565b6000808373ffffffffffffffffffffffffffffffffffffffff1673ffffffffffffffffffffffffffffffffffffffff16815260200190815260200160002081905550826000808673ffffffffffffffffffffffffffffffffffffffff1673ffffffffffffffffffffffffffffffffffffffff16815260200190815260200160002054610c9391906112ca565b6000808673ffffffffffffffffffffffffffffffffffffffff1673ffffffffffffffffffffffffffffffffffffffff168152602001908152602001600020819055508373ffffffffffffffffffffffffffffffffffffffff168173ffffffffffffffffffffffffffffffffffffffff167fddf252ad1be2c89b69c2b068fc378daa952ba7f163c4a11628f55a4df523b3ef85604051610d329190611293565b60405180910390a3600191505092915050565b6000600160008473ffffffffffffffffffffffffffffffffffffffff1673ffffffffffffffffffffffffffffffffffffffff16815260200190815260200160002060008373ffffffffffffffffffffffffffffffffffffffff1673ffffffffffffffffffffffffffffffffffffffff16815260200190815260200160002054905092915050565b600081359050610ddb81611470565b92915050565b600081359050610df081611487565b92915050565b600060208284031215610e0857600080fd5b6000610e1684828501610dcc565b91505092915050565b60008060408385031215610e3257600080fd5b6000610e4085828601610dcc565b9250506020610e5185828601610dcc565b9150509250929050565b600080600060608486031215610e7057600080fd5b6000610e7e86828701610dcc565b9350506020610e8f86828701610dcc565b9250506040610ea086828701610de1565b9150509250925092565b60008060408385031215610ebd57600080fd5b6000610ecb85828601610dcc565b9250506020610edc85828601610de1565b9150509250929050565b600060208284031215610ef857600080fd5b6000610f0684828501610de1565b91505092915050565b610f1881611354565b82525050565b610f2781611366565b82525050565b6000610f38826112ae565b610f4281856112b9565b9350610f5281856020860161139c565b610f5b8161145f565b840191505092915050565b6000610f736020836112b9565b91507f7472616e7366657220616d6f756e7420657865636465732062616c616e6365736000830152602082019050919050565b6000610fb3601d836112b9565b91507f617070726f76652066726f6d20746865207a65726f20616464726573730000006000830152602082019050919050565b6000610ff36017836112b9565b91507f616464726573732073686f756c64206e6f7420626520300000000000000000006000830152602082019050919050565b6000611033601d836112b9565b91507f417070726f76652066726f6d20746865207a65726f20616464726573730000006000830152602082019050919050565b60006110736021836112b9565b91507f5472616e7366657220616d6f756e74206578656364657320616c6c6f77616e6360008301527f65000000000000000000000000000000000000000000000000000000000000006020830152604082019050919050565b60006110d96019836112b9565b91507f45524332304361707065643a20636170206578636565646564000000000000006000830152602082019050919050565b6000611119601d836112b9565b91507f4f6e6c79206f776e65722063616e2067656e657261746520746f6b656e0000006000830152602082019050919050565b61115581611392565b82525050565b60006020820190506111706000830184610f0f565b92915050565b600060208201905061118b6000830184610f1e565b92915050565b600060208201905081810360008301526111ab8184610f2d565b905092915050565b600060208201905081810360008301526111cc81610f66565b9050919050565b600060208201905081810360008301526111ec81610fa6565b9050919050565b6000602082019050818103600083015261120c81610fe6565b9050919050565b6000602082019050818103600083015261122c81611026565b9050919050565b6000602082019050818103600083015261124c81611066565b9050919050565b6000602082019050818103600083015261126c816110cc565b9050919050565b6000602082019050818103600083015261128c8161110c565b9050919050565b60006020820190506112a8600083018461114c565b92915050565b600081519050919050565b600082825260208201905092915050565b60006112d582611392565b91506112e083611392565b9250827fffffffffffffffffffffffffffffffffffffffffffffffffffffffffffffffff0382111561131557611314611401565b5b828201905092915050565b600061132b82611392565b915061133683611392565b92508282101561134957611348611401565b5b828203905092915050565b600061135f82611372565b9050919050565b60008115159050919050565b600073ffffffffffffffffffffffffffffffffffffffff82169050919050565b6000819050919050565b60005b838110156113ba57808201518184015260208101905061139f565b838111156113c9576000848401525b50505050565b600060028204905060018216806113e757607f821691505b602082108114156113fb576113fa611430565b5b50919050565b7f4e487b7100000000000000000000000000000000000000000000000000000000600052601160045260246000fd5b7f4e487b7100000000000000000000000000000000000000000000000000000000600052602260045260246000fd5b6000601f19601f8301169050919050565b61147981611354565b811461148457600080fd5b50565b61149081611392565b811461149b57600080fd5b5056fea2646970667358221220a7380bfaf0204ea0ad19593bc9dab43b67b2cdf4dd0df7cbdb69887eefe44e2964736f6c63430008000033546f6b656e206d61646520627920486166697a2053617979656420416c692048616d64616e69",
  "immutableReferences": {
    "521": [
      {
        "length": 32,
        "start": 2359
      }
    ]
  },
  "source": " // SPDX-License-Identifier: MIT\r\n pragma solidity ^0.8.0;\r\ninterface IERC20{\r\n    function totalSupply() external view returns(uint256);\r\n    function balanceOf(address account) external view returns(uint256);\r\n    function transfer(address recipient,uint256 amount) external returns(bool);\r\n    function allowance(address owner,address spender) external view returns(uint256);\r\n    // This is to check that the person who we give Approval to transfer token fron \r\n    // our account.How many tokens Approval he still left;\r\n    function approve(address spender,uint256 amount) external returns(bool);\r\n    // This is to approve someone how to transfer certain amount of token from your \r\n    // account to someone else;\r\n    function transferFrom(address sender,address recipient,uint256 amount) external returns(bool);\r\n    // spender will use the function transferFrom to transfer amount;\r\n    event Transfer(address indexed from,address indexed to,uint256 value);\r\n    event Approval(address indexed owner,address indexed spender,uint256 value);\r\n}\r\ncontract ERC20 is IERC20{\r\n    mapping (address=>uint256) private _balances;\r\n    mapping (address=>mapping(address=>uint256)) private _allowances;\r\n    \r\n    uint256 private _totalSupply;\r\n    address public owner;\r\n    \r\n    string public name;\r\n    string public symbol;\r\n    uint256 public decimals;\r\n     uint256 private immutable _cap;\r\n    constructor() public {\r\n        name=\"Token made by Hafiz Sayyed Ali Hamdani\";\r\n        symbol=\"SAH\";\r\n        decimals=18;\r\n        owner=msg.sender;\r\n        _totalSupply=50*10**decimals;\r\n        _balances[owner]= _totalSupply;\r\n        _cap = 55*10**decimals;\r\n        emit Transfer(address(this),owner,_totalSupply);\r\n    }\r\n    \r\n    function totalSupply() public view override returns(uint256){\r\n        return _totalSupply;\r\n    }\r\n     function balanceOf(address account) public override view returns(uint256){\r\n         return _balances[account];\r\n     }\r\n     function transfer(address recipient,uint256 amount) public virtual override returns(bool){\r\n         address sender=msg.sender;\r\n         require(sender!=address(0),\"address should not be 0\");\r\n         require(recipient!=address(0),\"address should not be 0\");\r\n         require(_balances[sender]>amount,\"transfer amount execdes balances\");\r\n         \r\n         _balances[sender]=_balances[sender]-amount;\r\n         \r\n         _balances[recipient]=_balances[recipient]+amount;\r\n         \r\n         emit Transfer(sender,recipient,amount);\r\n         return true;\r\n     }\r\n      function allowance(address tokenowner,address spender) public view virtual override returns(uint256){\r\n          return _allowances[tokenowner][spender];\r\n      }\r\n      \r\n       function approve(address spender,uint256 amount) public virtual override returns(bool){\r\n           address tokenOwner=msg.sender;\r\n           require(tokenOwner!=address(0),\"approve from the zero address\");\r\n           require(spender!=address(0),\"Approve from the zero address\");\r\n           \r\n           _allowances[tokenOwner][spender]=amount;\r\n           emit Approval(tokenOwner,spender,amount);\r\n           return true;\r\n           \r\n       }\r\n       \r\n       function transferFrom(address tokenOwner,address recipient,uint256 amount) public virtual override returns(bool){\r\n       address spender=msg.sender;\r\n       uint256 _allowance=_allowances[tokenOwner][spender];\r\n       require(_allowance>amount,\"Transfer amount execdes allowance\");\r\n           _allowance=_allowance-amount;\r\n           _balances[tokenOwner]=_balances[tokenOwner]-amount;\r\n           _balances[recipient]=_balances[recipient]+amount;\r\n             emit Transfer(tokenOwner,recipient,amount);\r\n             _allowances[tokenOwner][spender]=_allowance;\r\n             emit Approval(tokenOwner,recipient,amount);\r\n         return true;\r\n           \r\n       }\r\n       function cap() public view virtual returns (uint256) {\r\n        return _cap;\r\n    }\r\n    function _mint(uint256 amount) public{\r\n        require(msg.sender==owner,\"Only owner can generate token\");\r\n        require(_totalSupply + amount <= cap(), \"ERC20Capped: cap exceeded\");\r\n        _totalSupply=_totalSupply+amount;\r\n    }\r\n}",
  "sourcePath": "D:\\NOTES\\ERC20_Capp_Timelock\\contracts\\Erc20.sol",
  "compiler": {
    "name": "solc",
    "version": "0.8.0+commit.c7dfd78e.Emscripten.clang"
  },
  "schemaVersion": "3.4.3",
  "updatedAt": "2021-08-23T08:23:41.321Z",
  "networkType": "ethereum",
  "devdoc": {
    "kind": "dev",
    "methods": {},
    "version": 1
  },
  "userdoc": {
    "kind": "user",
    "methods": {},
    "version": 1
  }
}